{
  "contractName": "PollChain",
  "abi": [
    {
      "constant": true,
      "inputs": [],
      "name": "pollsCount",
      "outputs": [
        {
          "name": "",
          "type": "uint256"
        }
      ],
      "payable": false,
      "stateMutability": "view",
      "type": "function"
    },
    {
      "constant": true,
      "inputs": [
        {
          "name": "",
          "type": "uint256"
        }
      ],
      "name": "pollsIndex",
      "outputs": [
        {
          "name": "",
          "type": "string"
        }
      ],
      "payable": false,
      "stateMutability": "view",
      "type": "function"
    },
    {
      "inputs": [],
      "payable": false,
      "stateMutability": "nonpayable",
      "type": "constructor"
    },
    {
      "payable": true,
      "stateMutability": "payable",
      "type": "fallback"
    },
    {
      "constant": false,
      "inputs": [
        {
          "name": "query",
          "type": "string"
        },
        {
          "name": "target",
          "type": "uint256"
        }
      ],
      "name": "addPoll",
      "outputs": [
        {
          "name": "success",
          "type": "bool"
        }
      ],
      "payable": false,
      "stateMutability": "nonpayable",
      "type": "function"
    },
    {
      "constant": false,
      "inputs": [
        {
          "name": "query",
          "type": "string"
        },
        {
          "name": "target",
          "type": "uint256"
        }
      ],
      "name": "addPollSponsor",
      "outputs": [
        {
          "name": "success",
          "type": "bool"
        }
      ],
      "payable": true,
      "stateMutability": "payable",
      "type": "function"
    },
    {
      "constant": false,
      "inputs": [
        {
          "name": "pollQuery",
          "type": "string"
        }
      ],
      "name": "vote",
      "outputs": [
        {
          "name": "success",
          "type": "bool"
        }
      ],
      "payable": false,
      "stateMutability": "nonpayable",
      "type": "function"
    }
  ],
  "bytecode": "0x608060405234801561001057600080fd5b506000600281905550610f22806100286000396000f30060806040526004361061006d576000357c0100000000000000000000000000000000000000000000000000000000900463ffffffff168063179d760d14610072578063979ff1f51461009d578063ae0dbf55146100da578063eaa5139a14610117578063fc36e15b14610147575b600080fd5b34801561007e57600080fd5b50610087610184565b6040516100949190610df6565b60405180910390f35b3480156100a957600080fd5b506100c460048036036100bf9190810190610ce8565b61018a565b6040516100d19190610db9565b60405180910390f35b3480156100e657600080fd5b5061010160048036036100fc9190810190610d3c565b6104bf565b60405161010e9190610dd4565b60405180910390f35b610131600480360361012c9190810190610ce8565b61057a565b60405161013e9190610db9565b60405180910390f35b34801561015357600080fd5b5061016e60048036036101699190810190610ca7565b6108af565b60405161017b9190610db9565b60405180910390f35b60025481565b6000336000846040518082805190602001908083835b6020831015156101c557805182526020820191506020810190506020830392506101a0565b6001836020036101000a038019825116818451168082178552505050505050905001915050908152602001604051809103902060000160006101000a81548173ffffffffffffffffffffffffffffffffffffffff021916908373ffffffffffffffffffffffffffffffffffffffff160217905550426000846040518082805190602001908083835b602083101515610272578051825260208201915060208101905060208303925061024d565b6001836020036101000a038019825116818451168082178552505050505050905001915050908152602001604051809103902060020181905550826000846040518082805190602001908083835b6020831015156102e557805182526020820191506020810190506020830392506102c0565b6001836020036101000a0380198251168184511680821785525050505050509050019150509081526020016040518091039020600101908051906020019061032e929190610b98565b50816000846040518082805190602001908083835b6020831015156103685780518252602082019150602081019050602083039250610343565b6001836020036101000a0380198251168184511680821785525050505050509050019150509081526020016040518091039020600401819055506040805190810160405280600481526020017f66726565000000000000000000000000000000000000000000000000000000008152506000846040518082805190602001908083835b60208310151561041057805182526020820191506020810190506020830392506103eb565b6001836020036101000a03801982511681845116808217855250505050505090500191505090815260200160405180910390206003019080519060200190610459929190610b98565b506001839080600181540180825580915050906001820390600052602060002001600090919290919091509080519060200190610497929190610b98565b50506104af6001600254610b7c90919063ffffffff16565b6002819055506001905092915050565b6001818154811015156104ce57fe5b906000526020600020016000915090508054600181600116156101000203166002900480601f0160208091040260200160405190810160405280929190818152602001828054600181600116156101000203166002900480156105725780601f1061054757610100808354040283529160200191610572565b820191906000526020600020905b81548152906001019060200180831161055557829003601f168201915b505050505081565b6000336000846040518082805190602001908083835b6020831015156105b55780518252602082019150602081019050602083039250610590565b6001836020036101000a038019825116818451168082178552505050505050905001915050908152602001604051809103902060000160006101000a81548173ffffffffffffffffffffffffffffffffffffffff021916908373ffffffffffffffffffffffffffffffffffffffff160217905550426000846040518082805190602001908083835b602083101515610662578051825260208201915060208101905060208303925061063d565b6001836020036101000a038019825116818451168082178552505050505050905001915050908152602001604051809103902060020181905550826000846040518082805190602001908083835b6020831015156106d557805182526020820191506020810190506020830392506106b0565b6001836020036101000a0380198251168184511680821785525050505050509050019150509081526020016040518091039020600101908051906020019061071e929190610b98565b50816000846040518082805190602001908083835b6020831015156107585780518252602082019150602081019050602083039250610733565b6001836020036101000a0380198251168184511680821785525050505050509050019150509081526020016040518091039020600401819055506040805190810160405280600281526020017f73700000000000000000000000000000000000000000000000000000000000008152506000846040518082805190602001908083835b60208310151561080057805182526020820191506020810190506020830392506107db565b6001836020036101000a03801982511681845116808217855250505050505090500191505090815260200160405180910390206003019080519060200190610849929190610b98565b506001839080600181540180825580915050906001820390600052602060002001600090919290919091509080519060200190610887929190610b98565b505061089f6001600254610b7c90919063ffffffff16565b6002819055506001905092915050565b6000806000806000856040518082805190602001908083835b6020831015156108ed57805182526020820191506020810190506020830392506108c8565b6001836020036101000a0380198251168184511680821785525050505050509050019150509081526020016040518091039020600201541415151561093157600080fd5b6000846040518082805190602001908083835b6020831015156109695780518252602082019150602081019050602083039250610944565b6001836020036101000a0380198251168184511680821785525050505050509050019150509081526020016040518091039020600501805490509150600090505b81811015610a9f573373ffffffffffffffffffffffffffffffffffffffff166000856040518082805190602001908083835b602083101515610a0157805182526020820191506020810190506020830392506109dc565b6001836020036101000a038019825116818451168082178552505050505050905001915050908152602001604051809103902060050182815481101515610a4457fe5b9060005260206000200160009054906101000a900473ffffffffffffffffffffffffffffffffffffffff1673ffffffffffffffffffffffffffffffffffffffff1614151515610a9257600080fd5b80806001019150506109aa565b6000846040518082805190602001908083835b602083101515610ad75780518252602082019150602081019050602083039250610ab2565b6001836020036101000a03801982511681845116808217855250505050505090500191505090815260200160405180910390206005013390806001815401808255809150509060018203906000526020600020016000909192909190916101000a81548173ffffffffffffffffffffffffffffffffffffffff021916908373ffffffffffffffffffffffffffffffffffffffff16021790555050600192505050919050565b60008183019050828110151515610b8f57fe5b80905092915050565b828054600181600116156101000203166002900490600052602060002090601f016020900481019282601f10610bd957805160ff1916838001178555610c07565b82800160010185558215610c07579182015b82811115610c06578251825591602001919060010190610beb565b5b509050610c149190610c18565b5090565b610c3a91905b80821115610c36576000816000905550600101610c1e565b5090565b90565b600082601f8301121515610c5057600080fd5b8135610c63610c5e82610e3e565b610e11565b91508082526020830160208301858383011115610c7f57600080fd5b610c8a838284610e95565b50505092915050565b6000610c9f8235610e8b565b905092915050565b600060208284031215610cb957600080fd5b600082013567ffffffffffffffff811115610cd357600080fd5b610cdf84828501610c3d565b91505092915050565b60008060408385031215610cfb57600080fd5b600083013567ffffffffffffffff811115610d1557600080fd5b610d2185828601610c3d565b9250506020610d3285828601610c93565b9150509250929050565b600060208284031215610d4e57600080fd5b6000610d5c84828501610c93565b91505092915050565b610d6e81610e75565b82525050565b6000610d7f82610e6a565b808452610d93816020860160208601610ea4565b610d9c81610ed7565b602085010191505092915050565b610db381610e81565b82525050565b6000602082019050610dce6000830184610d65565b92915050565b60006020820190508181036000830152610dee8184610d74565b905092915050565b6000602082019050610e0b6000830184610daa565b92915050565b6000604051905081810181811067ffffffffffffffff82111715610e3457600080fd5b8060405250919050565b600067ffffffffffffffff821115610e5557600080fd5b601f19601f8301169050602081019050919050565b600081519050919050565b60008115159050919050565b6000819050919050565b6000819050919050565b82818337600083830152505050565b60005b83811015610ec2578082015181840152602081019050610ea7565b83811115610ed1576000848401525b50505050565b6000601f19601f83011690509190505600a265627a7a72305820bbf38e31f66a5901cd28ef9bc5cd75fc9bf423684ed5135cdaa5f098c906e96b6c6578706572696d656e74616cf50037",
  "source": "pragma solidity ^0.4.23;\npragma experimental ABIEncoderV2;\n\nimport \"zeppelin-solidity/contracts/math/SafeMath.sol\";\n\nlibrary Types {\n\n  struct Poll {\n    address creator;\n    string query;\n    uint createdAt;\n    string kind;\n    uint target;\n    address[] contributors;\n  }\n\n}\n\ncontract PollChain {\n\n  using SafeMath for uint;\n\n  mapping(string => Types.Poll) internal polls;\n  string[] public pollsIndex;\n  uint public pollsCount;\n\n  constructor () public {\n\n    pollsCount = 0;\n\n  }\n\n  function () external payable {\n    revert();\n  }\n\n  function addPoll (string query, uint target) public returns (bool success){\n    polls[query].creator = msg.sender;\n    polls[query].createdAt = block.timestamp;\n    polls[query].query = query;\n    polls[query].target = target;\n    polls[query].kind = \"free\";\n    pollsIndex.push(query);\n    pollsCount = pollsCount.add(1);\n    return true;\n\n  }\n\n  function addPollSponsor (string query, uint target) public payable returns (bool success){\n    polls[query].creator = msg.sender;\n    polls[query].createdAt = block.timestamp;\n    polls[query].query = query;\n    polls[query].target = target;\n    polls[query].kind = \"sp\";\n    pollsIndex.push(query);\n    pollsCount = pollsCount.add(1);\n    return true;\n\n  }\n\n  function vote (string pollQuery) public returns (bool success){\n\n    require(polls[pollQuery].createdAt != 0);\n    uint contributorsLength = polls[pollQuery].contributors.length;\n\n    for (uint i=0; i < contributorsLength; i++) {\n\n      require(polls[pollQuery].contributors[i] != msg.sender);\n\n    }\n\n    polls[pollQuery].contributors.push(msg.sender);\n\n    return true;\n\n  }\n\n}\n",
  "sourcePath": "/Users/jules/WebstormProjects/pollchain/contracts/PollChain.sol",
  "compiler": {
    "name": "solc",
    "version": "0.4.24+commit.e67f0147.Emscripten.clang"
  },
  "schemaVersion": "2.0.0",
  "updatedAt": "2018-06-02T21:32:56.425Z"
}