{
  "contractName": "PollChain",
  "abi": [
    {
      "constant": true,
      "inputs": [],
      "name": "pollsCount",
      "outputs": [
        {
          "name": "",
          "type": "uint256"
        }
      ],
      "payable": false,
      "stateMutability": "view",
      "type": "function"
    },
    {
      "constant": true,
      "inputs": [
        {
          "name": "",
          "type": "uint256"
        }
      ],
      "name": "pollsIndex",
      "outputs": [
        {
          "name": "",
          "type": "string"
        }
      ],
      "payable": false,
      "stateMutability": "view",
      "type": "function"
    },
    {
      "constant": true,
      "inputs": [],
      "name": "costPeerVote",
      "outputs": [
        {
          "name": "",
          "type": "uint256"
        }
      ],
      "payable": false,
      "stateMutability": "view",
      "type": "function"
    },
    {
      "inputs": [],
      "payable": false,
      "stateMutability": "nonpayable",
      "type": "constructor"
    },
    {
      "payable": true,
      "stateMutability": "payable",
      "type": "fallback"
    },
    {
      "constant": false,
      "inputs": [
        {
          "name": "query",
          "type": "string"
        },
        {
          "name": "title",
          "type": "string"
        },
        {
          "name": "target",
          "type": "uint256"
        },
        {
          "name": "isSponsoring",
          "type": "bool"
        }
      ],
      "name": "addPoll",
      "outputs": [
        {
          "name": "success",
          "type": "bool"
        }
      ],
      "payable": true,
      "stateMutability": "payable",
      "type": "function"
    },
    {
      "constant": false,
      "inputs": [
        {
          "name": "pollTitle",
          "type": "string"
        },
        {
          "name": "pollTitleSponsored",
          "type": "string"
        },
        {
          "name": "voteRejected",
          "type": "bool"
        }
      ],
      "name": "vote",
      "outputs": [
        {
          "name": "success",
          "type": "bool"
        }
      ],
      "payable": false,
      "stateMutability": "nonpayable",
      "type": "function"
    },
    {
      "constant": true,
      "inputs": [
        {
          "name": "title",
          "type": "string"
        }
      ],
      "name": "getPoll",
      "outputs": [
        {
          "name": "",
          "type": "address"
        },
        {
          "name": "",
          "type": "string"
        },
        {
          "name": "",
          "type": "string"
        },
        {
          "name": "",
          "type": "uint256"
        },
        {
          "name": "",
          "type": "string"
        },
        {
          "name": "",
          "type": "uint256"
        },
        {
          "name": "",
          "type": "uint256"
        }
      ],
      "payable": false,
      "stateMutability": "view",
      "type": "function"
    }
  ],
  "bytecode": "0x608060405234801561001057600080fd5b50600060028190555067016345785d8a00006003819055506119ef806100376000396000f300608060405260043610610078576000357c0100000000000000000000000000000000000000000000000000000000900463ffffffff16806310a688e31461007d578063179d760d146100c05780632c69740b146100eb578063ae0dbf5514610128578063dbd89edf14610165578063e41c248a14610190575b600080fd5b34801561008957600080fd5b506100a4600480360361009f91908101906115b6565b6101c0565b6040516100b797969594939291906117cb565b60405180910390f35b3480156100cc57600080fd5b506100d56106e2565b6040516100e2919061188c565b60405180910390f35b3480156100f757600080fd5b50610112600480360361010d91908101906115f7565b6106e8565b60405161011f919061184f565b60405180910390f35b34801561013457600080fd5b5061014f600480360361014a9190810190611709565b610ede565b60405161015c919061186a565b60405180910390f35b34801561017157600080fd5b5061017a610f99565b604051610187919061188c565b60405180910390f35b6101aa60048036036101a59190810190611676565b610f9f565b6040516101b7919061184f565b60405180910390f35b6000606080600060606000806000886040518082805190602001908083835b60208310151561020457805182526020820191506020810190506020830392506101df565b6001836020036101000a038019825116818451168082178552505050505050905001915050908152602001604051809103902060000160009054906101000a900473ffffffffffffffffffffffffffffffffffffffff166000896040518082805190602001908083835b602083101515610293578051825260208201915060208101905060208303925061026e565b6001836020036101000a038019825116818451168082178552505050505050905001915050908152602001604051809103902060010160008a6040518082805190602001908083835b60208310151561030157805182526020820191506020810190506020830392506102dc565b6001836020036101000a038019825116818451168082178552505050505050905001915050908152602001604051809103902060020160008b6040518082805190602001908083835b60208310151561036f578051825260208201915060208101905060208303925061034a565b6001836020036101000a03801982511681845116808217855250505050505090500191505090815260200160405180910390206003015460008c6040518082805190602001908083835b6020831015156103de57805182526020820191506020810190506020830392506103b9565b6001836020036101000a038019825116818451168082178552505050505050905001915050908152602001604051809103902060040160008d6040518082805190602001908083835b60208310151561044c5780518252602082019150602081019050602083039250610427565b6001836020036101000a03801982511681845116808217855250505050505090500191505090815260200160405180910390206005015460008e6040518082805190602001908083835b6020831015156104bb5780518252602082019150602081019050602083039250610496565b6001836020036101000a038019825116818451168082178552505050505050905001915050908152602001604051809103902060060180549050858054600181600116156101000203166002900480601f01602080910402602001604051908101604052809291908181526020018280546001816001161561010002031660029004801561058a5780601f1061055f5761010080835404028352916020019161058a565b820191906000526020600020905b81548152906001019060200180831161056d57829003601f168201915b50505050509550848054600181600116156101000203166002900480601f0160208091040260200160405190810160405280929190818152602001828054600181600116156101000203166002900480156106265780601f106105fb57610100808354040283529160200191610626565b820191906000526020600020905b81548152906001019060200180831161060957829003601f168201915b50505050509450828054600181600116156101000203166002900480601f0160208091040260200160405190810160405280929190818152602001828054600181600116156101000203166002900480156106c25780601f10610697576101008083540402835291602001916106c2565b820191906000526020600020905b8154815290600101906020018083116106a557829003601f168201915b505050505092509650965096509650965096509650919395979092949650565b60025481565b6000806000806000806000805a96503a955061070d868861143f90919063ffffffff16565b94506000808c6040518082805190602001908083835b6020831015156107485780518252602082019150602081019050602083039250610723565b6001836020036101000a0380198251168184511680821785525050505050509050019150509081526020016040518091039020600301541415151561078c57600080fd5b60008b6040518082805190602001908083835b6020831015156107c4578051825260208201915060208101905060208303925061079f565b6001836020036101000a0380198251168184511680821785525050505050509050019150509081526020016040518091039020600601805490509350600092505b838310156108fa573373ffffffffffffffffffffffffffffffffffffffff1660008c6040518082805190602001908083835b60208310151561085c5780518252602082019150602081019050602083039250610837565b6001836020036101000a03801982511681845116808217855250505050505090500191505090815260200160405180910390206006018481548110151561089f57fe5b9060005260206000200160009054906101000a900473ffffffffffffffffffffffffffffffffffffffff1673ffffffffffffffffffffffffffffffffffffffff16141515156108ed57600080fd5b8280600101935050610805565b60008b6040518082805190602001908083835b602083101515610932578051825260208201915060208101905060208303925061090d565b6001836020036101000a03801982511681845116808217855250505050505090500191505090815260200160405180910390206006013390806001815401808255809150509060018203906000526020600020016000909192909190916101000a81548173ffffffffffffffffffffffffffffffffffffffff021916908373ffffffffffffffffffffffffffffffffffffffff160217905550506040518060000190506040518091039020600019168a6040518082805190602001908083835b602083101515610a1757805182526020820191506020810190506020830392506109f2565b6001836020036101000a038019825116818451168082178552505050505050905001915050604051809103902060001916141515610ecc576000808b6040518082805190602001908083835b602083101515610a885780518252602082019150602081019050602083039250610a63565b6001836020036101000a03801982511681845116808217855250505050505090500191505090815260200160405180910390206003015414151515610acc57600080fd5b60008a6040518082805190602001908083835b602083101515610b045780518252602082019150602081019050602083039250610adf565b6001836020036101000a038019825116818451168082178552505050505050905001915050908152602001604051809103902060060180549050915060008a6040518082805190602001908083835b602083101515610b785780518252602082019150602081019050602083039250610b53565b6001836020036101000a0380198251168184511680821785525050505050509050019150509081526020016040518091039020600501548211151515610bbd57600080fd5b600090505b83811015610cb7573373ffffffffffffffffffffffffffffffffffffffff1660008b6040518082805190602001908083835b602083101515610c195780518252602082019150602081019050602083039250610bf4565b6001836020036101000a038019825116818451168082178552505050505050905001915050908152602001604051809103902060060182815481101515610c5c57fe5b9060005260206000200160009054906101000a900473ffffffffffffffffffffffffffffffffffffffff1673ffffffffffffffffffffffffffffffffffffffff1614151515610caa57600080fd5b8080600101915050610bc2565b60008a6040518082805190602001908083835b602083101515610cef5780518252602082019150602081019050602083039250610cca565b6001836020036101000a03801982511681845116808217855250505050505090500191505090815260200160405180910390206006013390806001815401808255809150509060018203906000526020600020016000909192909190916101000a81548173ffffffffffffffffffffffffffffffffffffffff021916908373ffffffffffffffffffffffffffffffffffffffff160217905550508815610e8457610e11600160008c6040518082805190602001908083835b602083101515610dcc5780518252602082019150602081019050602083039250610da7565b6001836020036101000a03801982511681845116808217855250505050505090500191505090815260200160405180910390206007015461147790919063ffffffff16565b60008b6040518082805190602001908083835b602083101515610e495780518252602082019150602081019050602083039250610e24565b6001836020036101000a0380198251168184511680821785525050505050509050019150509081526020016040518091039020600701819055505b3373ffffffffffffffffffffffffffffffffffffffff166108fc869081150290604051600060405180830381858888f19350505050158015610eca573d6000803e3d6000fd5b505b60019750505050505050509392505050565b600181815481101515610eed57fe5b906000526020600020016000915090508054600181600116156101000203166002900480601f016020809104026020016040519081016040528092919081815260200182805460018160011615610100020316600290048015610f915780601f10610f6657610100808354040283529160200191610f91565b820191906000526020600020905b815481529060010190602001808311610f7457829003601f168201915b505050505081565b60035481565b6000336000856040518082805190602001908083835b602083101515610fda5780518252602082019150602081019050602083039250610fb5565b6001836020036101000a038019825116818451168082178552505050505050905001915050908152602001604051809103902060000160006101000a81548173ffffffffffffffffffffffffffffffffffffffff021916908373ffffffffffffffffffffffffffffffffffffffff160217905550426000856040518082805190602001908083835b6020831015156110875780518252602082019150602081019050602083039250611062565b6001836020036101000a038019825116818451168082178552505050505050905001915050908152602001604051809103902060030181905550836000856040518082805190602001908083835b6020831015156110fa57805182526020820191506020810190506020830392506110d5565b6001836020036101000a03801982511681845116808217855250505050505090500191505090815260200160405180910390206001019080519060200190611143929190611493565b50846000856040518082805190602001908083835b60208310151561117d5780518252602082019150602081019050602083039250611158565b6001836020036101000a038019825116818451168082178552505050505050905001915050908152602001604051809103902060020190805190602001906111c6929190611493565b50826000856040518082805190602001908083835b60208310151561120057805182526020820191506020810190506020830392506111db565b6001836020036101000a038019825116818451168082178552505050505050905001915050908152602001604051809103902060050181905550811561131f576112558360035461143f90919063ffffffff16565b3414151561126257600080fd5b6040805190810160405280600a81526020017f73706f6e736f72696e67000000000000000000000000000000000000000000008152506000856040518082805190602001908083835b6020831015156112d057805182526020820191506020810190506020830392506112ab565b6001836020036101000a03801982511681845116808217855250505050505090500191505090815260200160405180910390206004019080519060200190611319929190611493565b506113d8565b6040805190810160405280600481526020017f66726565000000000000000000000000000000000000000000000000000000008152506000856040518082805190602001908083835b60208310151561138d5780518252602082019150602081019050602083039250611368565b6001836020036101000a038019825116818451168082178552505050505050905001915050908152602001604051809103902060040190805190602001906113d6929190611493565b505b6001849080600181540180825580915050906001820390600052602060002001600090919290919091509080519060200190611415929190611493565b505061142d600160025461147790919063ffffffff16565b60028190555060019050949350505050565b6000808314156114525760009050611471565b818302905081838281151561146357fe5b0414151561146d57fe5b8090505b92915050565b6000818301905082811015151561148a57fe5b80905092915050565b828054600181600116156101000203166002900490600052602060002090601f016020900481019282601f106114d457805160ff1916838001178555611502565b82800160010185558215611502579182015b828111156115015782518255916020019190600101906114e6565b5b50905061150f9190611513565b5090565b61153591905b80821115611531576000816000905550600101611519565b5090565b90565b6000611544823561194c565b905092915050565b600082601f830112151561155f57600080fd5b813561157261156d826118d4565b6118a7565b9150808252602083016020830185838301111561158e57600080fd5b611599838284611962565b50505092915050565b60006115ae8235611958565b905092915050565b6000602082840312156115c857600080fd5b600082013567ffffffffffffffff8111156115e257600080fd5b6115ee8482850161154c565b91505092915050565b60008060006060848603121561160c57600080fd5b600084013567ffffffffffffffff81111561162657600080fd5b6116328682870161154c565b935050602084013567ffffffffffffffff81111561164f57600080fd5b61165b8682870161154c565b925050604061166c86828701611538565b9150509250925092565b6000806000806080858703121561168c57600080fd5b600085013567ffffffffffffffff8111156116a657600080fd5b6116b28782880161154c565b945050602085013567ffffffffffffffff8111156116cf57600080fd5b6116db8782880161154c565b93505060406116ec878288016115a2565b92505060606116fd87828801611538565b91505092959194509250565b60006020828403121561171b57600080fd5b6000611729848285016115a2565b91505092915050565b61173b81611916565b82525050565b61174a81611936565b82525050565b600061175b8261190b565b80845261176f816020860160208601611971565b611778816119a4565b602085010191505092915050565b600061179182611900565b8084526117a5816020860160208601611971565b6117ae816119a4565b602085010191505092915050565b6117c581611942565b82525050565b600060e0820190506117e0600083018a611732565b81810360208301526117f28189611750565b905081810360408301526118068188611750565b905061181560608301876117bc565b81810360808301526118278186611750565b905061183660a08301856117bc565b61184360c08301846117bc565b98975050505050505050565b60006020820190506118646000830184611741565b92915050565b600060208201905081810360008301526118848184611786565b905092915050565b60006020820190506118a160008301846117bc565b92915050565b6000604051905081810181811067ffffffffffffffff821117156118ca57600080fd5b8060405250919050565b600067ffffffffffffffff8211156118eb57600080fd5b601f19601f8301169050602081019050919050565b600081519050919050565b600081519050919050565b600073ffffffffffffffffffffffffffffffffffffffff82169050919050565b60008115159050919050565b6000819050919050565b60008115159050919050565b6000819050919050565b82818337600083830152505050565b60005b8381101561198f578082015181840152602081019050611974565b8381111561199e576000848401525b50505050565b6000601f19601f83011690509190505600a265627a7a72305820c3f4e8b643563cc4284bbf4874ad9b09350961640adc30a949c8e3b4f324f29e6c6578706572696d656e74616cf50037",
  "source": "pragma solidity ^0.4.23;\npragma experimental ABIEncoderV2;\n\nimport \"zeppelin-solidity/contracts/math/SafeMath.sol\";\n\nlibrary Types {\n\n  struct Poll {\n    address creator;\n    string title;\n    string query;\n    uint createdAt;\n    string kind;\n    uint target;\n    address[] contributors;\n    uint contributorsReject;\n  }\n\n}\n\ncontract PollChain {\n\n  using SafeMath for uint;\n\n  mapping(string => Types.Poll) internal polls;\n  string[] public pollsIndex;\n  uint public pollsCount;\n  uint public costPeerVote;\n\n  constructor () public {\n\n    pollsCount = 0;\n    costPeerVote = 100000000000000000; // 0.1 ether\n\n  }\n\n  function () external payable {\n    revert();\n  }\n\n  function addPoll (string query, string title, uint target, bool isSponsoring) public payable returns (bool success){\n    polls[title].creator = msg.sender;\n    polls[title].createdAt = block.timestamp;\n    polls[title].title = title;\n    polls[title].query = query;\n    polls[title].target = target;\n\n    if(isSponsoring){\n\n      require(msg.value == costPeerVote.mul(target));\n      polls[title].kind = \"sponsoring\";\n\n    } else {\n\n      polls[title].kind = \"free\";\n\n    }\n\n    pollsIndex.push(title);\n    pollsCount = pollsCount.add(1);\n    return true;\n\n  }\n\n  function vote (\n    string pollTitle,\n    string pollTitleSponsored,\n    bool voteRejected) public returns (bool success){\n\n    uint gas = gasleft();\n    uint gasPrice = tx.gasprice;\n    uint cost = gas.mul(gasPrice);\n    require(polls[pollTitle].createdAt != 0);\n    uint contributorsLength = polls[pollTitle].contributors.length;\n\n    for (uint i=0; i < contributorsLength; i++) {\n\n      require(polls[pollTitle].contributors[i] != msg.sender);\n\n    }\n\n    polls[pollTitle].contributors.push(msg.sender);\n\n    if(keccak256(pollTitleSponsored) != keccak256(\"\") ){\n\n      require(polls[pollTitleSponsored].createdAt != 0);\n\n      uint contributorsSponsoredLength = polls[pollTitleSponsored].contributors.length;\n\n      require(contributorsSponsoredLength <= polls[pollTitleSponsored].target);\n\n      for (uint j=0; j < contributorsLength; j++) {\n\n        require(polls[pollTitleSponsored].contributors[j] != msg.sender);\n\n      }\n\n      polls[pollTitleSponsored].contributors.push(msg.sender);\n\n      if(voteRejected){\n\n        polls[pollTitleSponsored].contributorsReject = polls[pollTitleSponsored].contributorsReject.add(1);\n\n      }\n\n      msg.sender.transfer(cost);\n\n    }\n\n    return true;\n\n  }\n\n  function getPoll(string title) public view returns (\n    address,\n    string,\n    string,\n    uint,\n    string,\n    uint,\n    uint\n  ){\n\n    return (\n    polls[title].creator,\n    polls[title].title,\n    polls[title].query,\n    polls[title].createdAt,\n    polls[title].kind,\n    polls[title].target,\n    polls[title].contributors.length\n    );\n\n  }\n\n}\n",
  "sourcePath": "/Users/jules/WebstormProjects/pollchain/contracts/PollChain.sol",
  "compiler": {
    "name": "solc",
    "version": "0.4.24+commit.e67f0147.Emscripten.clang"
  },
  "schemaVersion": "2.0.0",
  "updatedAt": "2018-06-03T10:56:21.572Z"
}