{
  "contractName": "PollChain",
  "abi": [
    {
      "constant": true,
      "inputs": [],
      "name": "pollsCount",
      "outputs": [
        {
          "name": "",
          "type": "uint256"
        }
      ],
      "payable": false,
      "stateMutability": "view",
      "type": "function"
    },
    {
      "constant": true,
      "inputs": [
        {
          "name": "",
          "type": "uint256"
        }
      ],
      "name": "pollsIndex",
      "outputs": [
        {
          "name": "",
          "type": "string"
        }
      ],
      "payable": false,
      "stateMutability": "view",
      "type": "function"
    },
    {
      "constant": true,
      "inputs": [],
      "name": "costPeerVote",
      "outputs": [
        {
          "name": "",
          "type": "uint256"
        }
      ],
      "payable": false,
      "stateMutability": "view",
      "type": "function"
    },
    {
      "inputs": [],
      "payable": false,
      "stateMutability": "nonpayable",
      "type": "constructor"
    },
    {
      "payable": true,
      "stateMutability": "payable",
      "type": "fallback"
    },
    {
      "constant": false,
      "inputs": [
        {
          "name": "query",
          "type": "string"
        },
        {
          "name": "title",
          "type": "string"
        },
        {
          "name": "target",
          "type": "uint256"
        },
        {
          "name": "isSponsoring",
          "type": "bool"
        }
      ],
      "name": "addPoll",
      "outputs": [
        {
          "name": "success",
          "type": "bool"
        }
      ],
      "payable": true,
      "stateMutability": "payable",
      "type": "function"
    },
    {
      "constant": false,
      "inputs": [
        {
          "name": "pollTitle",
          "type": "string"
        }
      ],
      "name": "vote",
      "outputs": [
        {
          "name": "success",
          "type": "bool"
        }
      ],
      "payable": false,
      "stateMutability": "nonpayable",
      "type": "function"
    },
    {
      "constant": true,
      "inputs": [
        {
          "name": "title",
          "type": "string"
        }
      ],
      "name": "getPoll",
      "outputs": [
        {
          "name": "",
          "type": "address"
        },
        {
          "name": "",
          "type": "string"
        },
        {
          "name": "",
          "type": "string"
        },
        {
          "name": "",
          "type": "uint256"
        },
        {
          "name": "",
          "type": "string"
        },
        {
          "name": "",
          "type": "uint256"
        },
        {
          "name": "",
          "type": "uint256"
        }
      ],
      "payable": false,
      "stateMutability": "view",
      "type": "function"
    }
  ],
  "bytecode": "0x608060405234801561001057600080fd5b50600060028190555067016345785d8a0000600381905550611447806100376000396000f300608060405260043610610078576000357c0100000000000000000000000000000000000000000000000000000000900463ffffffff16806310a688e31461007d578063179d760d146100c0578063ae0dbf55146100eb578063dbd89edf14610128578063e41c248a14610153578063fc36e15b14610183575b600080fd5b34801561008957600080fd5b506100a4600480360361009f919081019061108d565b6101c0565b6040516100b79796959493929190611223565b60405180910390f35b3480156100cc57600080fd5b506100d56106e2565b6040516100e291906112e4565b60405180910390f35b3480156100f757600080fd5b50610112600480360361010d9190810190611161565b6106e8565b60405161011f91906112c2565b60405180910390f35b34801561013457600080fd5b5061013d6107a3565b60405161014a91906112e4565b60405180910390f35b61016d600480360361016891908101906110ce565b6107a9565b60405161017a91906112a7565b60405180910390f35b34801561018f57600080fd5b506101aa60048036036101a5919081019061108d565b610c49565b6040516101b791906112a7565b60405180910390f35b6000606080600060606000806000886040518082805190602001908083835b60208310151561020457805182526020820191506020810190506020830392506101df565b6001836020036101000a038019825116818451168082178552505050505050905001915050908152602001604051809103902060000160009054906101000a900473ffffffffffffffffffffffffffffffffffffffff166000896040518082805190602001908083835b602083101515610293578051825260208201915060208101905060208303925061026e565b6001836020036101000a038019825116818451168082178552505050505050905001915050908152602001604051809103902060010160008a6040518082805190602001908083835b60208310151561030157805182526020820191506020810190506020830392506102dc565b6001836020036101000a038019825116818451168082178552505050505050905001915050908152602001604051809103902060020160008b6040518082805190602001908083835b60208310151561036f578051825260208201915060208101905060208303925061034a565b6001836020036101000a03801982511681845116808217855250505050505090500191505090815260200160405180910390206003015460008c6040518082805190602001908083835b6020831015156103de57805182526020820191506020810190506020830392506103b9565b6001836020036101000a038019825116818451168082178552505050505050905001915050908152602001604051809103902060040160008d6040518082805190602001908083835b60208310151561044c5780518252602082019150602081019050602083039250610427565b6001836020036101000a03801982511681845116808217855250505050505090500191505090815260200160405180910390206005015460008e6040518082805190602001908083835b6020831015156104bb5780518252602082019150602081019050602083039250610496565b6001836020036101000a038019825116818451168082178552505050505050905001915050908152602001604051809103902060060180549050858054600181600116156101000203166002900480601f01602080910402602001604051908101604052809291908181526020018280546001816001161561010002031660029004801561058a5780601f1061055f5761010080835404028352916020019161058a565b820191906000526020600020905b81548152906001019060200180831161056d57829003601f168201915b50505050509550848054600181600116156101000203166002900480601f0160208091040260200160405190810160405280929190818152602001828054600181600116156101000203166002900480156106265780601f106105fb57610100808354040283529160200191610626565b820191906000526020600020905b81548152906001019060200180831161060957829003601f168201915b50505050509450828054600181600116156101000203166002900480601f0160208091040260200160405190810160405280929190818152602001828054600181600116156101000203166002900480156106c25780601f10610697576101008083540402835291602001916106c2565b820191906000526020600020905b8154815290600101906020018083116106a557829003601f168201915b505050505092509650965096509650965096509650919395979092949650565b60025481565b6001818154811015156106f757fe5b906000526020600020016000915090508054600181600116156101000203166002900480601f01602080910402602001604051908101604052809291908181526020018280546001816001161561010002031660029004801561079b5780601f106107705761010080835404028352916020019161079b565b820191906000526020600020905b81548152906001019060200180831161077e57829003601f168201915b505050505081565b60035481565b6000336000856040518082805190602001908083835b6020831015156107e457805182526020820191506020810190506020830392506107bf565b6001836020036101000a038019825116818451168082178552505050505050905001915050908152602001604051809103902060000160006101000a81548173ffffffffffffffffffffffffffffffffffffffff021916908373ffffffffffffffffffffffffffffffffffffffff160217905550426000856040518082805190602001908083835b602083101515610891578051825260208201915060208101905060208303925061086c565b6001836020036101000a038019825116818451168082178552505050505050905001915050908152602001604051809103902060030181905550836000856040518082805190602001908083835b60208310151561090457805182526020820191506020810190506020830392506108df565b6001836020036101000a0380198251168184511680821785525050505050509050019150509081526020016040518091039020600101908051906020019061094d929190610f6a565b50846000856040518082805190602001908083835b6020831015156109875780518252602082019150602081019050602083039250610962565b6001836020036101000a038019825116818451168082178552505050505050905001915050908152602001604051809103902060020190805190602001906109d0929190610f6a565b50826000856040518082805190602001908083835b602083101515610a0a57805182526020820191506020810190506020830392506109e5565b6001836020036101000a0380198251168184511680821785525050505050509050019150509081526020016040518091039020600501819055508115610b2957610a5f83600354610f1690919063ffffffff16565b34141515610a6c57600080fd5b6040805190810160405280600a81526020017f73706f6e736f72696e67000000000000000000000000000000000000000000008152506000856040518082805190602001908083835b602083101515610ada5780518252602082019150602081019050602083039250610ab5565b6001836020036101000a03801982511681845116808217855250505050505090500191505090815260200160405180910390206004019080519060200190610b23929190610f6a565b50610be2565b6040805190810160405280600481526020017f66726565000000000000000000000000000000000000000000000000000000008152506000856040518082805190602001908083835b602083101515610b975780518252602082019150602081019050602083039250610b72565b6001836020036101000a03801982511681845116808217855250505050505090500191505090815260200160405180910390206004019080519060200190610be0929190610f6a565b505b6001849080600181540180825580915050906001820390600052602060002001600090919290919091509080519060200190610c1f929190610f6a565b5050610c376001600254610f4e90919063ffffffff16565b60028190555060019050949350505050565b6000806000806000856040518082805190602001908083835b602083101515610c875780518252602082019150602081019050602083039250610c62565b6001836020036101000a03801982511681845116808217855250505050505090500191505090815260200160405180910390206003015414151515610ccb57600080fd5b6000846040518082805190602001908083835b602083101515610d035780518252602082019150602081019050602083039250610cde565b6001836020036101000a0380198251168184511680821785525050505050509050019150509081526020016040518091039020600601805490509150600090505b81811015610e39573373ffffffffffffffffffffffffffffffffffffffff166000856040518082805190602001908083835b602083101515610d9b5780518252602082019150602081019050602083039250610d76565b6001836020036101000a038019825116818451168082178552505050505050905001915050908152602001604051809103902060060182815481101515610dde57fe5b9060005260206000200160009054906101000a900473ffffffffffffffffffffffffffffffffffffffff1673ffffffffffffffffffffffffffffffffffffffff1614151515610e2c57600080fd5b8080600101915050610d44565b6000846040518082805190602001908083835b602083101515610e715780518252602082019150602081019050602083039250610e4c565b6001836020036101000a03801982511681845116808217855250505050505090500191505090815260200160405180910390206006013390806001815401808255809150509060018203906000526020600020016000909192909190916101000a81548173ffffffffffffffffffffffffffffffffffffffff021916908373ffffffffffffffffffffffffffffffffffffffff16021790555050600192505050919050565b600080831415610f295760009050610f48565b8183029050818382811515610f3a57fe5b04141515610f4457fe5b8090505b92915050565b60008183019050828110151515610f6157fe5b80905092915050565b828054600181600116156101000203166002900490600052602060002090601f016020900481019282601f10610fab57805160ff1916838001178555610fd9565b82800160010185558215610fd9579182015b82811115610fd8578251825591602001919060010190610fbd565b5b509050610fe69190610fea565b5090565b61100c91905b80821115611008576000816000905550600101610ff0565b5090565b90565b600061101b82356113a4565b905092915050565b600082601f830112151561103657600080fd5b81356110496110448261132c565b6112ff565b9150808252602083016020830185838301111561106557600080fd5b6110708382846113ba565b50505092915050565b600061108582356113b0565b905092915050565b60006020828403121561109f57600080fd5b600082013567ffffffffffffffff8111156110b957600080fd5b6110c584828501611023565b91505092915050565b600080600080608085870312156110e457600080fd5b600085013567ffffffffffffffff8111156110fe57600080fd5b61110a87828801611023565b945050602085013567ffffffffffffffff81111561112757600080fd5b61113387828801611023565b935050604061114487828801611079565b92505060606111558782880161100f565b91505092959194509250565b60006020828403121561117357600080fd5b600061118184828501611079565b91505092915050565b6111938161136e565b82525050565b6111a28161138e565b82525050565b60006111b382611363565b8084526111c78160208601602086016113c9565b6111d0816113fc565b602085010191505092915050565b60006111e982611358565b8084526111fd8160208601602086016113c9565b611206816113fc565b602085010191505092915050565b61121d8161139a565b82525050565b600060e082019050611238600083018a61118a565b818103602083015261124a81896111a8565b9050818103604083015261125e81886111a8565b905061126d6060830187611214565b818103608083015261127f81866111a8565b905061128e60a0830185611214565b61129b60c0830184611214565b98975050505050505050565b60006020820190506112bc6000830184611199565b92915050565b600060208201905081810360008301526112dc81846111de565b905092915050565b60006020820190506112f96000830184611214565b92915050565b6000604051905081810181811067ffffffffffffffff8211171561132257600080fd5b8060405250919050565b600067ffffffffffffffff82111561134357600080fd5b601f19601f8301169050602081019050919050565b600081519050919050565b600081519050919050565b600073ffffffffffffffffffffffffffffffffffffffff82169050919050565b60008115159050919050565b6000819050919050565b60008115159050919050565b6000819050919050565b82818337600083830152505050565b60005b838110156113e75780820151818401526020810190506113cc565b838111156113f6576000848401525b50505050565b6000601f19601f83011690509190505600a265627a7a7230582021430c45b123ea0e0caff41b129faf07e9a83355e8bfeea9c58b4cc04ea1bd846c6578706572696d656e74616cf50037",
  "source": "pragma solidity ^0.4.23;\npragma experimental ABIEncoderV2;\n\nimport \"zeppelin-solidity/contracts/math/SafeMath.sol\";\n\nlibrary Types {\n\n  struct Poll {\n    address creator;\n    string title;\n    string query;\n    uint createdAt;\n    string kind;\n    uint target;\n    address[] contributors;\n    uint contributorsReject;\n  }\n\n}\n\ncontract PollChain {\n\n  using SafeMath for uint;\n\n  mapping(string => Types.Poll) internal polls;\n  string[] public pollsIndex;\n  uint public pollsCount;\n  uint public costPeerVote;\n\n  constructor () public {\n\n    pollsCount = 0;\n    costPeerVote = 100000000000000000; // 0.1 ether\n\n  }\n\n  function () external payable {\n    revert();\n  }\n\n  function addPoll (string query, string title, uint target, bool isSponsoring) public payable returns (bool success){\n    polls[title].creator = msg.sender;\n    polls[title].createdAt = block.timestamp;\n    polls[title].title = title;\n    polls[title].query = query;\n    polls[title].target = target;\n\n    if(isSponsoring){\n\n      require(msg.value == costPeerVote.mul(target));\n      polls[title].kind = \"sponsoring\";\n\n    } else {\n\n      polls[title].kind = \"free\";\n\n    }\n\n    pollsIndex.push(title);\n    pollsCount = pollsCount.add(1);\n    return true;\n\n  }\n\n  function vote (string pollTitle) public returns (bool success){\n\n    require(polls[pollTitle].createdAt != 0);\n    uint contributorsLength = polls[pollTitle].contributors.length;\n\n    for (uint i=0; i < contributorsLength; i++) {\n\n      require(polls[pollTitle].contributors[i] != msg.sender);\n\n    }\n\n    polls[pollTitle].contributors.push(msg.sender);\n\n    return true;\n\n  }\n//\n//  function vote (string pollQuery, string pollQuerySponsored, bool voteRejected) public returns (bool success){\n//\n//    uint gas = gasleft();\n//    uint gasPrice = tx.gasprice;\n//    uint cost = gas.mul(gasPrice);\n//    require(polls[pollQuery].createdAt != 0);\n//    require(polls[pollQuerySponsored].createdAt != 0);\n//    uint contributorsLength = polls[pollQuery].contributors.length;\n//\n//    for (uint i=0; i < contributorsLength; i++) {\n//\n//      require(polls[pollQuery].contributors[i] != msg.sender);\n//\n//    }\n//\n//    uint contributorsSponsoredLength = polls[pollQuerySponsored].contributors.length;\n//\n//    require(contributorsSponsoredLength <= polls[pollQuerySponsored].target);\n//\n//    for (uint j=0; j < contributorsLength; j++) {\n//\n//      require(polls[pollQuerySponsored].contributors[j] != msg.sender);\n//\n//    }\n//\n//    polls[pollQuerySponsored].contributors.push(msg.sender);\n//\n//    if(voteRejected){\n//\n//      polls[pollQuerySponsored].contributorsReject = polls[pollQuerySponsored].contributorsReject.add(1);\n//\n//    }\n//\n//    msg.sender.transfer(cost);\n//    return true;\n//\n//  }\n\n  function getPoll(string title) public view returns (\n    address,\n    string,\n    string,\n    uint,\n    string,\n    uint,\n    uint\n  ){\n\n    return (\n      polls[title].creator,\n      polls[title].title,\n      polls[title].query,\n      polls[title].createdAt,\n      polls[title].kind,\n      polls[title].target,\n      polls[title].contributors.length\n    );\n\n  }\n\n}\n",
  "sourcePath": "/Users/jules/WebstormProjects/pollchain/contracts/PollChain.sol",
  "compiler": {
    "name": "solc",
    "version": "0.4.24+commit.e67f0147.Emscripten.clang"
  },
  "schemaVersion": "2.0.0",
  "updatedAt": "2018-06-03T07:02:52.246Z"
}