{
  "contractName": "PollChain",
  "abi": [
    {
      "constant": true,
      "inputs": [],
      "name": "pollsCount",
      "outputs": [
        {
          "name": "",
          "type": "uint256"
        }
      ],
      "payable": false,
      "stateMutability": "view",
      "type": "function"
    },
    {
      "constant": true,
      "inputs": [
        {
          "name": "",
          "type": "uint256"
        }
      ],
      "name": "pollsIndex",
      "outputs": [
        {
          "name": "",
          "type": "string"
        }
      ],
      "payable": false,
      "stateMutability": "view",
      "type": "function"
    },
    {
      "constant": true,
      "inputs": [],
      "name": "costPeerVote",
      "outputs": [
        {
          "name": "",
          "type": "uint256"
        }
      ],
      "payable": false,
      "stateMutability": "view",
      "type": "function"
    },
    {
      "inputs": [],
      "payable": false,
      "stateMutability": "nonpayable",
      "type": "constructor"
    },
    {
      "payable": true,
      "stateMutability": "payable",
      "type": "fallback"
    },
    {
      "constant": false,
      "inputs": [
        {
          "name": "query",
          "type": "string"
        },
        {
          "name": "target",
          "type": "uint256"
        },
        {
          "name": "isSponsoring",
          "type": "bool"
        }
      ],
      "name": "addPoll",
      "outputs": [
        {
          "name": "success",
          "type": "bool"
        }
      ],
      "payable": true,
      "stateMutability": "payable",
      "type": "function"
    },
    {
      "constant": false,
      "inputs": [
        {
          "name": "pollQuery",
          "type": "string"
        }
      ],
      "name": "vote",
      "outputs": [
        {
          "name": "success",
          "type": "bool"
        }
      ],
      "payable": false,
      "stateMutability": "nonpayable",
      "type": "function"
    },
    {
      "constant": true,
      "inputs": [
        {
          "name": "query",
          "type": "string"
        }
      ],
      "name": "getPoll",
      "outputs": [
        {
          "name": "",
          "type": "address"
        },
        {
          "name": "",
          "type": "string"
        },
        {
          "name": "",
          "type": "uint256"
        },
        {
          "name": "",
          "type": "string"
        },
        {
          "name": "",
          "type": "uint256"
        },
        {
          "name": "",
          "type": "uint256"
        }
      ],
      "payable": false,
      "stateMutability": "view",
      "type": "function"
    }
  ],
  "bytecode": "0x608060405234801561001057600080fd5b50600060028190555067016345785d8a0000600381905550611272806100376000396000f300608060405260043610610078576000357c0100000000000000000000000000000000000000000000000000000000900463ffffffff16806310a688e31461007d578063179d760d146100bf5780638c955cbb146100ea578063ae0dbf551461011a578063dbd89edf14610157578063fc36e15b14610182575b600080fd5b34801561008957600080fd5b506100a4600480360361009f9190810190610ef9565b6101bf565b6040516100b696959493929190611063565b60405180910390f35b3480156100cb57600080fd5b506100d46105d2565b6040516100e1919061110f565b60405180910390f35b61010460048036036100ff9190810190610f3a565b6105d8565b60405161011191906110d2565b60405180910390f35b34801561012657600080fd5b50610141600480360361013c9190810190610fa1565b6109f4565b60405161014e91906110ed565b60405180910390f35b34801561016357600080fd5b5061016c610aaf565b604051610179919061110f565b60405180910390f35b34801561018e57600080fd5b506101a960048036036101a49190810190610ef9565b610ab5565b6040516101b691906110d2565b60405180910390f35b60006060600060606000806000876040518082805190602001908083835b60208310151561020257805182526020820191506020810190506020830392506101dd565b6001836020036101000a038019825116818451168082178552505050505050905001915050908152602001604051809103902060000160009054906101000a900473ffffffffffffffffffffffffffffffffffffffff166000886040518082805190602001908083835b602083101515610291578051825260208201915060208101905060208303925061026c565b6001836020036101000a03801982511681845116808217855250505050505090500191505090815260200160405180910390206001016000896040518082805190602001908083835b6020831015156102ff57805182526020820191506020810190506020830392506102da565b6001836020036101000a03801982511681845116808217855250505050505090500191505090815260200160405180910390206002015460008a6040518082805190602001908083835b60208310151561036e5780518252602082019150602081019050602083039250610349565b6001836020036101000a038019825116818451168082178552505050505050905001915050908152602001604051809103902060030160008b6040518082805190602001908083835b6020831015156103dc57805182526020820191506020810190506020830392506103b7565b6001836020036101000a03801982511681845116808217855250505050505090500191505090815260200160405180910390206004015460008c6040518082805190602001908083835b60208310151561044b5780518252602082019150602081019050602083039250610426565b6001836020036101000a038019825116818451168082178552505050505050905001915050908152602001604051809103902060050180549050848054600181600116156101000203166002900480601f01602080910402602001604051908101604052809291908181526020018280546001816001161561010002031660029004801561051a5780601f106104ef5761010080835404028352916020019161051a565b820191906000526020600020905b8154815290600101906020018083116104fd57829003601f168201915b50505050509450828054600181600116156101000203166002900480601f0160208091040260200160405190810160405280929190818152602001828054600181600116156101000203166002900480156105b65780601f1061058b576101008083540402835291602001916105b6565b820191906000526020600020905b81548152906001019060200180831161059957829003601f168201915b5050505050925095509550955095509550955091939550919395565b60025481565b6000336000856040518082805190602001908083835b60208310151561061357805182526020820191506020810190506020830392506105ee565b6001836020036101000a038019825116818451168082178552505050505050905001915050908152602001604051809103902060000160006101000a81548173ffffffffffffffffffffffffffffffffffffffff021916908373ffffffffffffffffffffffffffffffffffffffff160217905550426000856040518082805190602001908083835b6020831015156106c0578051825260208201915060208101905060208303925061069b565b6001836020036101000a038019825116818451168082178552505050505050905001915050908152602001604051809103902060020181905550836000856040518082805190602001908083835b602083101515610733578051825260208201915060208101905060208303925061070e565b6001836020036101000a0380198251168184511680821785525050505050509050019150509081526020016040518091039020600101908051906020019061077c929190610dd6565b50826000856040518082805190602001908083835b6020831015156107b65780518252602082019150602081019050602083039250610791565b6001836020036101000a03801982511681845116808217855250505050505090500191505090815260200160405180910390206004018190555081156108d55761080b83600354610d8290919063ffffffff16565b3414151561081857600080fd5b6040805190810160405280600a81526020017f73706f6e736f72696e67000000000000000000000000000000000000000000008152506000856040518082805190602001908083835b6020831015156108865780518252602082019150602081019050602083039250610861565b6001836020036101000a038019825116818451168082178552505050505050905001915050908152602001604051809103902060030190805190602001906108cf929190610dd6565b5061098e565b6040805190810160405280600481526020017f66726565000000000000000000000000000000000000000000000000000000008152506000856040518082805190602001908083835b602083101515610943578051825260208201915060208101905060208303925061091e565b6001836020036101000a0380198251168184511680821785525050505050509050019150509081526020016040518091039020600301908051906020019061098c929190610dd6565b505b60018490806001815401808255809150509060018203906000526020600020016000909192909190915090805190602001906109cb929190610dd6565b50506109e36001600254610dba90919063ffffffff16565b600281905550600190509392505050565b600181815481101515610a0357fe5b906000526020600020016000915090508054600181600116156101000203166002900480601f016020809104026020016040519081016040528092919081815260200182805460018160011615610100020316600290048015610aa75780601f10610a7c57610100808354040283529160200191610aa7565b820191906000526020600020905b815481529060010190602001808311610a8a57829003601f168201915b505050505081565b60035481565b6000806000806000856040518082805190602001908083835b602083101515610af35780518252602082019150602081019050602083039250610ace565b6001836020036101000a03801982511681845116808217855250505050505090500191505090815260200160405180910390206002015414151515610b3757600080fd5b6000846040518082805190602001908083835b602083101515610b6f5780518252602082019150602081019050602083039250610b4a565b6001836020036101000a0380198251168184511680821785525050505050509050019150509081526020016040518091039020600501805490509150600090505b81811015610ca5573373ffffffffffffffffffffffffffffffffffffffff166000856040518082805190602001908083835b602083101515610c075780518252602082019150602081019050602083039250610be2565b6001836020036101000a038019825116818451168082178552505050505050905001915050908152602001604051809103902060050182815481101515610c4a57fe5b9060005260206000200160009054906101000a900473ffffffffffffffffffffffffffffffffffffffff1673ffffffffffffffffffffffffffffffffffffffff1614151515610c9857600080fd5b8080600101915050610bb0565b6000846040518082805190602001908083835b602083101515610cdd5780518252602082019150602081019050602083039250610cb8565b6001836020036101000a03801982511681845116808217855250505050505090500191505090815260200160405180910390206005013390806001815401808255809150509060018203906000526020600020016000909192909190916101000a81548173ffffffffffffffffffffffffffffffffffffffff021916908373ffffffffffffffffffffffffffffffffffffffff16021790555050600192505050919050565b600080831415610d955760009050610db4565b8183029050818382811515610da657fe5b04141515610db057fe5b8090505b92915050565b60008183019050828110151515610dcd57fe5b80905092915050565b828054600181600116156101000203166002900490600052602060002090601f016020900481019282601f10610e1757805160ff1916838001178555610e45565b82800160010185558215610e45579182015b82811115610e44578251825591602001919060010190610e29565b5b509050610e529190610e56565b5090565b610e7891905b80821115610e74576000816000905550600101610e5c565b5090565b90565b6000610e8782356111cf565b905092915050565b600082601f8301121515610ea257600080fd5b8135610eb5610eb082611157565b61112a565b91508082526020830160208301858383011115610ed157600080fd5b610edc8382846111e5565b50505092915050565b6000610ef182356111db565b905092915050565b600060208284031215610f0b57600080fd5b600082013567ffffffffffffffff811115610f2557600080fd5b610f3184828501610e8f565b91505092915050565b600080600060608486031215610f4f57600080fd5b600084013567ffffffffffffffff811115610f6957600080fd5b610f7586828701610e8f565b9350506020610f8686828701610ee5565b9250506040610f9786828701610e7b565b9150509250925092565b600060208284031215610fb357600080fd5b6000610fc184828501610ee5565b91505092915050565b610fd381611199565b82525050565b610fe2816111b9565b82525050565b6000610ff38261118e565b8084526110078160208601602086016111f4565b61101081611227565b602085010191505092915050565b600061102982611183565b80845261103d8160208601602086016111f4565b61104681611227565b602085010191505092915050565b61105d816111c5565b82525050565b600060c0820190506110786000830189610fca565b818103602083015261108a8188610fe8565b90506110996040830187611054565b81810360608301526110ab8186610fe8565b90506110ba6080830185611054565b6110c760a0830184611054565b979650505050505050565b60006020820190506110e76000830184610fd9565b92915050565b60006020820190508181036000830152611107818461101e565b905092915050565b60006020820190506111246000830184611054565b92915050565b6000604051905081810181811067ffffffffffffffff8211171561114d57600080fd5b8060405250919050565b600067ffffffffffffffff82111561116e57600080fd5b601f19601f8301169050602081019050919050565b600081519050919050565b600081519050919050565b600073ffffffffffffffffffffffffffffffffffffffff82169050919050565b60008115159050919050565b6000819050919050565b60008115159050919050565b6000819050919050565b82818337600083830152505050565b60005b838110156112125780820151818401526020810190506111f7565b83811115611221576000848401525b50505050565b6000601f19601f83011690509190505600a265627a7a7230582001e8856bf895e70cbba943b4717a6ec20c9fcbe6ce4a9ea32f7c03c1cb9467f86c6578706572696d656e74616cf50037",
  "source": "pragma solidity ^0.4.23;\npragma experimental ABIEncoderV2;\n\nimport \"zeppelin-solidity/contracts/math/SafeMath.sol\";\n\nlibrary Types {\n\n  struct Poll {\n    address creator;\n    string query;\n    uint createdAt;\n    string kind;\n    uint target;\n    address[] contributors;\n  }\n\n}\n\ncontract PollChain {\n\n  using SafeMath for uint;\n\n  mapping(string => Types.Poll) internal polls;\n  string[] public pollsIndex;\n  uint public pollsCount;\n  uint public costPeerVote;\n\n  constructor () public {\n\n    pollsCount = 0;\n    costPeerVote = 100000000000000000; // 0.1 ether\n\n  }\n\n  function () external payable {\n    revert();\n  }\n\n  function addPoll (string query, uint target, bool isSponsoring) public payable returns (bool success){\n    polls[query].creator = msg.sender;\n    polls[query].createdAt = block.timestamp;\n    polls[query].query = query;\n    polls[query].target = target;\n\n    if(isSponsoring){\n\n      require(msg.value == costPeerVote.mul(target));\n      polls[query].kind = \"sponsoring\";\n\n    } else {\n\n      polls[query].kind = \"free\";\n\n    }\n\n    pollsIndex.push(query);\n    pollsCount = pollsCount.add(1);\n    return true;\n\n  }\n\n  function vote (string pollQuery) public returns (bool success){\n\n    require(polls[pollQuery].createdAt != 0);\n    uint contributorsLength = polls[pollQuery].contributors.length;\n\n    for (uint i=0; i < contributorsLength; i++) {\n\n      require(polls[pollQuery].contributors[i] != msg.sender);\n\n    }\n\n    polls[pollQuery].contributors.push(msg.sender);\n\n    return true;\n\n  }\n\n  function getPoll(string query) public view returns (\n    address,\n    string,\n    uint,\n    string,\n    uint,\n    uint\n  ){\n\n    return (\n      polls[query].creator,\n      polls[query].query,\n      polls[query].createdAt,\n      polls[query].kind,\n      polls[query].target,\n      polls[query].contributors.length\n    );\n\n  }\n\n}\n",
  "sourcePath": "/Users/jules/WebstormProjects/pollchain/contracts/PollChain.sol",
  "compiler": {
    "name": "solc",
    "version": "0.4.24+commit.e67f0147.Emscripten.clang"
  },
  "schemaVersion": "2.0.0",
  "updatedAt": "2018-06-03T01:04:55.002Z"
}