{
  "contractName": "PollChain",
  "abi": [
    {
      "constant": true,
      "inputs": [],
      "name": "pollsCount",
      "outputs": [
        {
          "name": "",
          "type": "uint256"
        }
      ],
      "payable": false,
      "stateMutability": "view",
      "type": "function"
    },
    {
      "constant": true,
      "inputs": [
        {
          "name": "",
          "type": "uint256"
        }
      ],
      "name": "pollsIndex",
      "outputs": [
        {
          "name": "",
          "type": "string"
        }
      ],
      "payable": false,
      "stateMutability": "view",
      "type": "function"
    },
    {
      "inputs": [],
      "payable": false,
      "stateMutability": "nonpayable",
      "type": "constructor"
    },
    {
      "payable": true,
      "stateMutability": "payable",
      "type": "fallback"
    },
    {
      "constant": false,
      "inputs": [
        {
          "name": "query",
          "type": "string"
        },
        {
          "name": "target",
          "type": "uint256"
        }
      ],
      "name": "addPoll",
      "outputs": [
        {
          "name": "success",
          "type": "bool"
        }
      ],
      "payable": false,
      "stateMutability": "nonpayable",
      "type": "function"
    },
    {
      "constant": false,
      "inputs": [
        {
          "name": "query",
          "type": "string"
        },
        {
          "name": "target",
          "type": "uint256"
        }
      ],
      "name": "addPollSponsor",
      "outputs": [
        {
          "name": "success",
          "type": "bool"
        }
      ],
      "payable": true,
      "stateMutability": "payable",
      "type": "function"
    },
    {
      "constant": false,
      "inputs": [
        {
          "name": "pollQuery",
          "type": "string"
        }
      ],
      "name": "vote",
      "outputs": [
        {
          "name": "success",
          "type": "bool"
        }
      ],
      "payable": false,
      "stateMutability": "nonpayable",
      "type": "function"
    },
    {
      "constant": true,
      "inputs": [
        {
          "name": "query",
          "type": "string"
        }
      ],
      "name": "getPoll",
      "outputs": [
        {
          "name": "",
          "type": "address"
        },
        {
          "name": "",
          "type": "string"
        },
        {
          "name": "",
          "type": "uint256"
        },
        {
          "name": "",
          "type": "string"
        },
        {
          "name": "",
          "type": "uint256"
        },
        {
          "name": "",
          "type": "uint256"
        }
      ],
      "payable": false,
      "stateMutability": "view",
      "type": "function"
    }
  ],
  "bytecode": "0x608060405234801561001057600080fd5b506000600281905550611461806100286000396000f300608060405260043610610078576000357c0100000000000000000000000000000000000000000000000000000000900463ffffffff16806310a688e31461007d578063179d760d146100bf578063979ff1f5146100ea578063ae0dbf5514610127578063eaa5139a14610164578063fc36e15b14610194575b600080fd5b34801561008957600080fd5b506100a4600480360361009f9190810190611107565b6101d1565b6040516100b69695949392919061125e565b60405180910390f35b3480156100cb57600080fd5b506100d46105e4565b6040516100e1919061130a565b60405180910390f35b3480156100f657600080fd5b50610111600480360361010c9190810190611148565b6105ea565b60405161011e91906112cd565b60405180910390f35b34801561013357600080fd5b5061014e6004803603610149919081019061119c565b61091f565b60405161015b91906112e8565b60405180910390f35b61017e60048036036101799190810190611148565b6109da565b60405161018b91906112cd565b60405180910390f35b3480156101a057600080fd5b506101bb60048036036101b69190810190611107565b610d0f565b6040516101c891906112cd565b60405180910390f35b60006060600060606000806000876040518082805190602001908083835b60208310151561021457805182526020820191506020810190506020830392506101ef565b6001836020036101000a038019825116818451168082178552505050505050905001915050908152602001604051809103902060000160009054906101000a900473ffffffffffffffffffffffffffffffffffffffff166000886040518082805190602001908083835b6020831015156102a3578051825260208201915060208101905060208303925061027e565b6001836020036101000a03801982511681845116808217855250505050505090500191505090815260200160405180910390206001016000896040518082805190602001908083835b60208310151561031157805182526020820191506020810190506020830392506102ec565b6001836020036101000a03801982511681845116808217855250505050505090500191505090815260200160405180910390206002015460008a6040518082805190602001908083835b602083101515610380578051825260208201915060208101905060208303925061035b565b6001836020036101000a038019825116818451168082178552505050505050905001915050908152602001604051809103902060030160008b6040518082805190602001908083835b6020831015156103ee57805182526020820191506020810190506020830392506103c9565b6001836020036101000a03801982511681845116808217855250505050505090500191505090815260200160405180910390206004015460008c6040518082805190602001908083835b60208310151561045d5780518252602082019150602081019050602083039250610438565b6001836020036101000a038019825116818451168082178552505050505050905001915050908152602001604051809103902060050180549050848054600181600116156101000203166002900480601f01602080910402602001604051908101604052809291908181526020018280546001816001161561010002031660029004801561052c5780601f106105015761010080835404028352916020019161052c565b820191906000526020600020905b81548152906001019060200180831161050f57829003601f168201915b50505050509450828054600181600116156101000203166002900480601f0160208091040260200160405190810160405280929190818152602001828054600181600116156101000203166002900480156105c85780601f1061059d576101008083540402835291602001916105c8565b820191906000526020600020905b8154815290600101906020018083116105ab57829003601f168201915b5050505050925095509550955095509550955091939550919395565b60025481565b6000336000846040518082805190602001908083835b6020831015156106255780518252602082019150602081019050602083039250610600565b6001836020036101000a038019825116818451168082178552505050505050905001915050908152602001604051809103902060000160006101000a81548173ffffffffffffffffffffffffffffffffffffffff021916908373ffffffffffffffffffffffffffffffffffffffff160217905550426000846040518082805190602001908083835b6020831015156106d257805182526020820191506020810190506020830392506106ad565b6001836020036101000a038019825116818451168082178552505050505050905001915050908152602001604051809103902060020181905550826000846040518082805190602001908083835b6020831015156107455780518252602082019150602081019050602083039250610720565b6001836020036101000a0380198251168184511680821785525050505050509050019150509081526020016040518091039020600101908051906020019061078e929190610ff8565b50816000846040518082805190602001908083835b6020831015156107c857805182526020820191506020810190506020830392506107a3565b6001836020036101000a0380198251168184511680821785525050505050509050019150509081526020016040518091039020600401819055506040805190810160405280600481526020017f66726565000000000000000000000000000000000000000000000000000000008152506000846040518082805190602001908083835b602083101515610870578051825260208201915060208101905060208303925061084b565b6001836020036101000a038019825116818451168082178552505050505050905001915050908152602001604051809103902060030190805190602001906108b9929190610ff8565b5060018390806001815401808255809150509060018203906000526020600020016000909192909190915090805190602001906108f7929190610ff8565b505061090f6001600254610fdc90919063ffffffff16565b6002819055506001905092915050565b60018181548110151561092e57fe5b906000526020600020016000915090508054600181600116156101000203166002900480601f0160208091040260200160405190810160405280929190818152602001828054600181600116156101000203166002900480156109d25780601f106109a7576101008083540402835291602001916109d2565b820191906000526020600020905b8154815290600101906020018083116109b557829003601f168201915b505050505081565b6000336000846040518082805190602001908083835b602083101515610a1557805182526020820191506020810190506020830392506109f0565b6001836020036101000a038019825116818451168082178552505050505050905001915050908152602001604051809103902060000160006101000a81548173ffffffffffffffffffffffffffffffffffffffff021916908373ffffffffffffffffffffffffffffffffffffffff160217905550426000846040518082805190602001908083835b602083101515610ac25780518252602082019150602081019050602083039250610a9d565b6001836020036101000a038019825116818451168082178552505050505050905001915050908152602001604051809103902060020181905550826000846040518082805190602001908083835b602083101515610b355780518252602082019150602081019050602083039250610b10565b6001836020036101000a03801982511681845116808217855250505050505090500191505090815260200160405180910390206001019080519060200190610b7e929190610ff8565b50816000846040518082805190602001908083835b602083101515610bb85780518252602082019150602081019050602083039250610b93565b6001836020036101000a0380198251168184511680821785525050505050509050019150509081526020016040518091039020600401819055506040805190810160405280600281526020017f73700000000000000000000000000000000000000000000000000000000000008152506000846040518082805190602001908083835b602083101515610c605780518252602082019150602081019050602083039250610c3b565b6001836020036101000a03801982511681845116808217855250505050505090500191505090815260200160405180910390206003019080519060200190610ca9929190610ff8565b506001839080600181540180825580915050906001820390600052602060002001600090919290919091509080519060200190610ce7929190610ff8565b5050610cff6001600254610fdc90919063ffffffff16565b6002819055506001905092915050565b6000806000806000856040518082805190602001908083835b602083101515610d4d5780518252602082019150602081019050602083039250610d28565b6001836020036101000a03801982511681845116808217855250505050505090500191505090815260200160405180910390206002015414151515610d9157600080fd5b6000846040518082805190602001908083835b602083101515610dc95780518252602082019150602081019050602083039250610da4565b6001836020036101000a0380198251168184511680821785525050505050509050019150509081526020016040518091039020600501805490509150600090505b81811015610eff573373ffffffffffffffffffffffffffffffffffffffff166000856040518082805190602001908083835b602083101515610e615780518252602082019150602081019050602083039250610e3c565b6001836020036101000a038019825116818451168082178552505050505050905001915050908152602001604051809103902060050182815481101515610ea457fe5b9060005260206000200160009054906101000a900473ffffffffffffffffffffffffffffffffffffffff1673ffffffffffffffffffffffffffffffffffffffff1614151515610ef257600080fd5b8080600101915050610e0a565b6000846040518082805190602001908083835b602083101515610f375780518252602082019150602081019050602083039250610f12565b6001836020036101000a03801982511681845116808217855250505050505090500191505090815260200160405180910390206005013390806001815401808255809150509060018203906000526020600020016000909192909190916101000a81548173ffffffffffffffffffffffffffffffffffffffff021916908373ffffffffffffffffffffffffffffffffffffffff16021790555050600192505050919050565b60008183019050828110151515610fef57fe5b80905092915050565b828054600181600116156101000203166002900490600052602060002090601f016020900481019282601f1061103957805160ff1916838001178555611067565b82800160010185558215611067579182015b8281111561106657825182559160200191906001019061104b565b5b5090506110749190611078565b5090565b61109a91905b8082111561109657600081600090555060010161107e565b5090565b90565b600082601f83011215156110b057600080fd5b81356110c36110be82611352565b611325565b915080825260208301602083018583830111156110df57600080fd5b6110ea8382846113d4565b50505092915050565b60006110ff82356113ca565b905092915050565b60006020828403121561111957600080fd5b600082013567ffffffffffffffff81111561113357600080fd5b61113f8482850161109d565b91505092915050565b6000806040838503121561115b57600080fd5b600083013567ffffffffffffffff81111561117557600080fd5b6111818582860161109d565b9250506020611192858286016110f3565b9150509250929050565b6000602082840312156111ae57600080fd5b60006111bc848285016110f3565b91505092915050565b6111ce81611394565b82525050565b6111dd816113b4565b82525050565b60006111ee82611389565b8084526112028160208601602086016113e3565b61120b81611416565b602085010191505092915050565b60006112248261137e565b8084526112388160208601602086016113e3565b61124181611416565b602085010191505092915050565b611258816113c0565b82525050565b600060c08201905061127360008301896111c5565b818103602083015261128581886111e3565b9050611294604083018761124f565b81810360608301526112a681866111e3565b90506112b5608083018561124f565b6112c260a083018461124f565b979650505050505050565b60006020820190506112e260008301846111d4565b92915050565b600060208201905081810360008301526113028184611219565b905092915050565b600060208201905061131f600083018461124f565b92915050565b6000604051905081810181811067ffffffffffffffff8211171561134857600080fd5b8060405250919050565b600067ffffffffffffffff82111561136957600080fd5b601f19601f8301169050602081019050919050565b600081519050919050565b600081519050919050565b600073ffffffffffffffffffffffffffffffffffffffff82169050919050565b60008115159050919050565b6000819050919050565b6000819050919050565b82818337600083830152505050565b60005b838110156114015780820151818401526020810190506113e6565b83811115611410576000848401525b50505050565b6000601f19601f83011690509190505600a265627a7a72305820747823175f9c10aa415b2b49489a3ea03171d74fcf2529c1d4a493c91cf5ebd76c6578706572696d656e74616cf50037",
  "source": "pragma solidity ^0.4.23;\npragma experimental ABIEncoderV2;\n\nimport \"zeppelin-solidity/contracts/math/SafeMath.sol\";\n\nlibrary Types {\n\n  struct Poll {\n    address creator;\n    string query;\n    uint createdAt;\n    string kind;\n    uint target;\n    address[] contributors;\n  }\n\n}\n\ncontract PollChain {\n\n  using SafeMath for uint;\n\n  mapping(string => Types.Poll) internal polls;\n  string[] public pollsIndex;\n  uint public pollsCount;\n\n  constructor () public {\n\n    pollsCount = 0;\n\n  }\n\n  function () external payable {\n    revert();\n  }\n\n  function addPoll (string query, uint target) public returns (bool success){\n    polls[query].creator = msg.sender;\n    polls[query].createdAt = block.timestamp;\n    polls[query].query = query;\n    polls[query].target = target;\n    polls[query].kind = \"free\";\n    pollsIndex.push(query);\n    pollsCount = pollsCount.add(1);\n    return true;\n\n  }\n\n  function addPollSponsor (string query, uint target) public payable returns (bool success){\n    polls[query].creator = msg.sender;\n    polls[query].createdAt = block.timestamp;\n    polls[query].query = query;\n    polls[query].target = target;\n    polls[query].kind = \"sp\";\n    pollsIndex.push(query);\n    pollsCount = pollsCount.add(1);\n    return true;\n\n  }\n\n  function vote (string pollQuery) public returns (bool success){\n\n    require(polls[pollQuery].createdAt != 0);\n    uint contributorsLength = polls[pollQuery].contributors.length;\n\n    for (uint i=0; i < contributorsLength; i++) {\n\n      require(polls[pollQuery].contributors[i] != msg.sender);\n\n    }\n\n    polls[pollQuery].contributors.push(msg.sender);\n\n    return true;\n\n  }\n\n  function getPoll(string query) public view returns (\n    address,\n    string,\n    uint,\n    string,\n    uint,\n    uint\n  ){\n\n    return (\n      polls[query].creator,\n      polls[query].query,\n      polls[query].createdAt,\n      polls[query].kind,\n      polls[query].target,\n      polls[query].contributors.length\n    );\n\n  }\n\n}\n",
  "sourcePath": "/Users/jules/WebstormProjects/pollchain/contracts/PollChain.sol",
  "compiler": {
    "name": "solc",
    "version": "0.4.24+commit.e67f0147.Emscripten.clang"
  },
  "schemaVersion": "2.0.0",
  "updatedAt": "2018-06-02T22:58:09.520Z"
}